S010000067616D65637562652E73726563DB
S113000063C097C07CC07BC07AC079C078C077C019
S113001076C075C074C073C072C071C070C06FC048
S11300206EC005010905A101050919012910150072
S11300302501750195108102050109300931093244
S1130040093309340935150026FF00750895068122
S113005002C0090222000101008019090400000104
S1130060030000000921010100012230000705817D
S11300700308000A1201100100000008C016DC0584
S113008002000102000114037300680069006E009D
S1130090650077006100760065002A0365006C0046
S11300A065006300740072006900630065007800F5
S11300B070006C006F006900740073002E006E0005
S11300C0650074000403090411241FBECFE5D2E0C7
S11300D0DEBFCDBF10E0A0E6B0E0ECE2FAE002C083
S11300E005900D92A236B107D9F720E0A2E6B0E060
S11300F001C01D92A13AB207E1F752D295C480CF54
S1130100A82FB92F80E090E041E050EA609530E0FC
S113011009C02D9182279795879510F084279527FC
S1130120305EC8F36F5FA8F30895EADF8D939D9363
S11301300895CF93CFB7CF93C395CB9BE9F7CB9BD0
S113014009C0CB9B07C0CB9B05C0CB9B03C0CB9BFB
S113015001C0A3C0DF93C0918400DD27C557DF4FE2
S1130160CB9B02C0DF91EBCF2F930F931F9309B367
S11301702FEF03FB20F94F933F9319B34FEF012760
S113018003FB21F93BE031C04E7F012F19B32160FD
S113019028C0102F4D7F2260000009B329C04B7F77
S11301A02460012F000019B32BC019B3477F2860C6
S11301B02AC04F7E09B320612CC04F7D19B3206241
S11301C02FC04F7B09B3206432C0422709B349933F
S11301D04FEF0000102713FB20F919B31878C9F169
S11301E0297F91F2012703FB21F909B3237F89F2C7
S11301F0315058F1102713FB22F919B3277E79F2F5
S1130200012703FB23F92F7C81F209B3102713FB89
S113021024F92F7971F200C019B3012703FB25F9E2
S11302202F7359F200C009B3102713FB26F92230AB
S113023040F200C019B3012703FB27F9243028F644
S11302404F77206819B30000F9CF10E41ABF0027D4
S113025019C03B503195C31BD04010E41ABF08812C
S1130260033CF9F00B34E9F0209182001981110F5D
S11302701213EDCF4A81441F093641F10D3211F0BA
S1130280013E29F7009389003F914F911F910F91EF
S11302902F91DF91CAB7C6FD4FCFCF91CFBFCF917A
S11302A0189520918900222379F310918700112356
S11302B069F534306AF130938700209383001091FC
S11302C084003BE0311B3093840022C000918700FE
S11302D00130E4F40AE54F7049F43091610034FDD3
S11302E019C000936100CBE6D0E018C030917600CD
S11302F034FD10C000937600C7E7D0E00FC0279507
S1130300A8F45150A9F4220F0000F9CF4AE503C024
S113031042ED01C0432FC4E1D0E032E01AB31868C3
S1130320DB9A1ABB0BB320E418E85F93012756E06D
S11303300BBB279520F4515021F4220FF9CF01274C
S113034056E000003B5A0BBBD0F2279528F45150DD
S113035029F4220F0000F9CF012756E027950BBBA3
S113036020F4515021F4220FF9CF012756E02991AE
S113037033230BBB21F6077710918800110FC65168
S1130380D0400BBB11F01093820010E41ABF086038
S11303901AB31777402F47775F9100C000C00BBB9B
S11303A01ABB4BBB71CFD698DE9AD29ABA98D3981F
S11303B0D798C298DB98DF98089512BE8FEF88BF54
S11303C083B7816083BF089583B78E7F83BF089509
S11303D0FBDF82E086BF08956D9A08956D9A0895B3
S11303E06A9A0895F8949EE088E10FB6F894A89567
S11303F081BD0FBE91BD0BD3D39A8AEFA895E3EFCD
S1130400F1E03197F1F700C000008150B9F7D398BB
S113041078940895DE9AD69A88E0DE9800C00000A9
S1130420DE9A00008150C9F7DE980000DE9A00C011
S11304300000D69808950F931F93CF938C0188EEF4
S11304408EB9CCDFC1DF0000D69ADE98DE9800C0FA
S11304500000DE9A0000DE980000DE9A00C0000072
S1130460DE9800C00000DE9A0000DE9800C00000A4
S1130470DE9A0000DE9800C00000DE9A0000DE98DC
S113048000C00000DE9A0000DE9800C00000DE9A82
S11304900000DE9800C00000DE9A0000DE9800C074
S11304A00000DE9A0000DE9800C00000DE9A000022
S11304B0DE9800C00000DE9A0000DE9800C0000054
S11304C0DE9A0000DE9800C00000DE9A0000DE988C
S11304D000C00000DE9A0000DE980000DE9A00C032
S11304E00000DE980000DE9A00C00000DE9800C024
S11304F00000DE9A0000DE9800C00000DE9A0000D2
S1130500DE9800C00000DE9A0000DE9800C0000003
S1130510DE9A0000DE9800C00000DE9A0000DE983B
S113052000C00000DE9A0000DE980000DE9A00C0E1
S11305300000DE9800C00000DE9A0000DE9800C0D3
S11305400000DE9A0000DE9AD69846DF36DFC0E06F
S113055085E010C008B600FE0DC040DF82B78831C8
S1130560E8F3C11104C0DA9ADA9880E015C02CDFF0
S113057081E012C0CE99EECF82BF769B0AC0739AF7
S113058090B3F801EC0FF11D9083CF5FDA9ADA98FB
S1130590769ACE9BFECFEECFCF911F910F91089507
S11305A0CF93DF93CDB7DEB728970FB6F894DEBFAD
S11305B00FBECDBFF8DE0CDF13DF14DF2BDFFE012F
S11305C0319688E0DF011D928A95E9F70F2EF6E750
S11305D0EF2EF0E0FF2EF02D6E01B9E0CB0ED11C12
S11305E000EF5F018E2E9B2CF1D0A895D7018C9142
S11305F084FFFACFFE0131960193CE16DF06E1F7B0
S113060015E0882D992D17DF882371F063E670E0DB
S1130610C50121D068E083E690E0B6D080916800FF
S11306208F3F11F70000E0CF115059F7DDCFFC01E7
S113063090819076903259F48181813051F483E62F
S113064090E0909386008093850088E0089580E090
S1130650089580E00895DC01FB0113968C911397B3
S113066080FF06C08081918181609183808305C071
S1130670808191818E7F9183808313968C911397CF
S113068082FF06C08081918182609183808305C04E
S1130690808191818D7F9183808313968C911397B0
S11306A081FF06C08081918184609183808305C02D
S11306B0808191818B7F9183808313968C91139792
S11306C083FF06C08081918188609183808305C007
S11306D080819181877F918380831A968C911A9768
S11306E0813830F08081918180619183808305C05D
S11306F0808191818F7E9183808319968C91199743
S1130700813830F08081918180629183808305C03B
S1130710808191818F7D9183808313968D919C91AB
S1130720149793FF06C080819181806491838083B4
S113073005C0808191818F7B9183808313968C91F6
S1130740139784FF06C080819181806891838083A0
S113075005C0808191818F779183808315968C91D8
S11307601597828316968C9116978195838384E6D8
S1130770848380E8858317968C91179786831896CF
S11307808C91819587830895CF93C62F209176000D
S113079024FF07C0E6E7F0E0318128E8232721831E
S11307A003C02AE520937600E82FF92FA8E7B0E0EC
S11307B08C2F91919D938150E1F76C2F88E790E005
S11307C0B4DCCC5FC0937600CF910895CF93DF93D0
S11307D08091870083500AF4B4C0909183009D32C5
S11307E009F0ADC0883009F0AAC080918400CCE043
S11307F0D0E0C81BD109C557DF4F83EC80936B0051
S11308008AE580936100109262008881807619F0F5
S1130810CE010DDF8BC09A81109274008981811101
S113082006C01092750024E730E082E07BC085307A
S113083031F49093880024E730E080E073C0863080
S113084009F050C08B81813041F484E790E09093AB
S113085086008093850082E141C0823041F482E5C4
S113086090E0909386008093850082E237C08330C5
S1130870F1F4911108C084EC90E090938600809389
S1130880850084E02BC0913041F48AE990E0909394
S11308908600809385008AE221C09230E1F486E8E4
S11308A090E0909386008093850084E117C08132A4
S11308B041F484E690E0909386008093850089E07B
S11308C00DC0823251F482E290E0909386008093CE
S11308D0850080E303C080E001C080E090E4909351
S11308E0620024C0883099F0893031F490938A00F2
S11308F024E730E080E016C08A3069F08B3079F468
S11309008BE48093770024E730E080E00BC02AE892
S113091030E081E007C024E730E081E003C024E751
S113092030E080E030938600209385009F81911110
S113093004C09E81981708F4892F80936000109258
S113094087008091610084FF4BC0809160008F3FDD
S113095009F446C0C82F893008F0C8E08C1B809386
S11309606000EBE6F0E0908188E889278083CC235F
S113097009F444C020918500309186008091620082
S113098086FF10C0ACE6B0E0F9018C2F94919D93E2
S113099031968150D9F78FEF8C0F90E00196280F94
S11309A0391F0EC0D901ECE6F0E08C2F9D91919394
S11309B08150E1F78FEF8C0F90E00196280F391FDB
S11309C030938600209385006C2F8CE690E0ADDB9D
S11309D0CC5FCC3018F48FEF80936000C09361003B
S11309E089B3887889F493E189B3887869F491505C
S11309F0D9F7109288001092820006C06C2F8CE602
S1130A0090E093DBCC5FE7CFDF91CF91089585B77A
S1130A10826085BF8BB780648BBFE6E7F0E08BE430
S10F0A2081838AE580830895F894FFCF59
S1050A2CFF5A6B
S9030000FC
